{
  "address": "0x314aA6567cc847a32f1339b71AECE8827B51f0D7",
  "abi": [
    {
      "inputs": [
        {
          "internalType": "address",
          "name": "_governanceToken",
          "type": "address"
        },
        {
          "internalType": "uint256",
          "name": "_initialDistributionRate",
          "type": "uint256"
        },
        {
          "internalType": "address",
          "name": "_initialOwner",
          "type": "address"
        }
      ],
      "stateMutability": "nonpayable",
      "type": "constructor"
    },
    {
      "inputs": [],
      "name": "ERC721EnumerableForbiddenBatchMint",
      "type": "error"
    },
    {
      "inputs": [
        {
          "internalType": "address",
          "name": "sender",
          "type": "address"
        },
        {
          "internalType": "uint256",
          "name": "tokenId",
          "type": "uint256"
        },
        {
          "internalType": "address",
          "name": "owner",
          "type": "address"
        }
      ],
      "name": "ERC721IncorrectOwner",
      "type": "error"
    },
    {
      "inputs": [
        {
          "internalType": "address",
          "name": "operator",
          "type": "address"
        },
        {
          "internalType": "uint256",
          "name": "tokenId",
          "type": "uint256"
        }
      ],
      "name": "ERC721InsufficientApproval",
      "type": "error"
    },
    {
      "inputs": [
        {
          "internalType": "address",
          "name": "approver",
          "type": "address"
        }
      ],
      "name": "ERC721InvalidApprover",
      "type": "error"
    },
    {
      "inputs": [
        {
          "internalType": "address",
          "name": "operator",
          "type": "address"
        }
      ],
      "name": "ERC721InvalidOperator",
      "type": "error"
    },
    {
      "inputs": [
        {
          "internalType": "address",
          "name": "owner",
          "type": "address"
        }
      ],
      "name": "ERC721InvalidOwner",
      "type": "error"
    },
    {
      "inputs": [
        {
          "internalType": "address",
          "name": "receiver",
          "type": "address"
        }
      ],
      "name": "ERC721InvalidReceiver",
      "type": "error"
    },
    {
      "inputs": [
        {
          "internalType": "address",
          "name": "sender",
          "type": "address"
        }
      ],
      "name": "ERC721InvalidSender",
      "type": "error"
    },
    {
      "inputs": [
        {
          "internalType": "uint256",
          "name": "tokenId",
          "type": "uint256"
        }
      ],
      "name": "ERC721NonexistentToken",
      "type": "error"
    },
    {
      "inputs": [
        {
          "internalType": "address",
          "name": "owner",
          "type": "address"
        },
        {
          "internalType": "uint256",
          "name": "index",
          "type": "uint256"
        }
      ],
      "name": "ERC721OutOfBoundsIndex",
      "type": "error"
    },
    {
      "inputs": [
        {
          "internalType": "uint256",
          "name": "requested",
          "type": "uint256"
        },
        {
          "internalType": "uint256",
          "name": "available",
          "type": "uint256"
        }
      ],
      "name": "InsufficientStake",
      "type": "error"
    },
    {
      "inputs": [],
      "name": "InvalidAddress",
      "type": "error"
    },
    {
      "inputs": [],
      "name": "InvalidAmount",
      "type": "error"
    },
    {
      "inputs": [],
      "name": "InvalidRate",
      "type": "error"
    },
    {
      "inputs": [],
      "name": "InvalidTokenId",
      "type": "error"
    },
    {
      "inputs": [],
      "name": "NoRewardsAvailable",
      "type": "error"
    },
    {
      "inputs": [
        {
          "internalType": "uint256",
          "name": "tokenId",
          "type": "uint256"
        },
        {
          "internalType": "address",
          "name": "caller",
          "type": "address"
        }
      ],
      "name": "NotTokenOwner",
      "type": "error"
    },
    {
      "inputs": [
        {
          "internalType": "address",
          "name": "owner",
          "type": "address"
        }
      ],
      "name": "OwnableInvalidOwner",
      "type": "error"
    },
    {
      "inputs": [
        {
          "internalType": "address",
          "name": "account",
          "type": "address"
        }
      ],
      "name": "OwnableUnauthorizedAccount",
      "type": "error"
    },
    {
      "inputs": [],
      "name": "ReentrancyGuardReentrantCall",
      "type": "error"
    },
    {
      "anonymous": false,
      "inputs": [
        {
          "indexed": true,
          "internalType": "address",
          "name": "owner",
          "type": "address"
        },
        {
          "indexed": true,
          "internalType": "address",
          "name": "approved",
          "type": "address"
        },
        {
          "indexed": true,
          "internalType": "uint256",
          "name": "tokenId",
          "type": "uint256"
        }
      ],
      "name": "Approval",
      "type": "event"
    },
    {
      "anonymous": false,
      "inputs": [
        {
          "indexed": true,
          "internalType": "address",
          "name": "owner",
          "type": "address"
        },
        {
          "indexed": true,
          "internalType": "address",
          "name": "operator",
          "type": "address"
        },
        {
          "indexed": false,
          "internalType": "bool",
          "name": "approved",
          "type": "bool"
        }
      ],
      "name": "ApprovalForAll",
      "type": "event"
    },
    {
      "anonymous": false,
      "inputs": [
        {
          "indexed": false,
          "internalType": "uint256",
          "name": "_fromTokenId",
          "type": "uint256"
        },
        {
          "indexed": false,
          "internalType": "uint256",
          "name": "_toTokenId",
          "type": "uint256"
        }
      ],
      "name": "BatchMetadataUpdate",
      "type": "event"
    },
    {
      "anonymous": false,
      "inputs": [
        {
          "indexed": true,
          "internalType": "uint256",
          "name": "tokenId",
          "type": "uint256"
        },
        {
          "indexed": true,
          "internalType": "address",
          "name": "token",
          "type": "address"
        },
        {
          "indexed": true,
          "internalType": "address",
          "name": "delegatee",
          "type": "address"
        }
      ],
      "name": "DelegatedToken",
      "type": "event"
    },
    {
      "anonymous": false,
      "inputs": [
        {
          "indexed": true,
          "internalType": "address",
          "name": "to",
          "type": "address"
        },
        {
          "indexed": false,
          "internalType": "uint256",
          "name": "amount",
          "type": "uint256"
        }
      ],
      "name": "EscapeHatchActivated",
      "type": "event"
    },
    {
      "anonymous": false,
      "inputs": [
        {
          "indexed": false,
          "internalType": "uint256",
          "name": "_tokenId",
          "type": "uint256"
        }
      ],
      "name": "MetadataUpdate",
      "type": "event"
    },
    {
      "anonymous": false,
      "inputs": [
        {
          "indexed": true,
          "internalType": "address",
          "name": "previousOwner",
          "type": "address"
        },
        {
          "indexed": true,
          "internalType": "address",
          "name": "newOwner",
          "type": "address"
        }
      ],
      "name": "OwnershipTransferred",
      "type": "event"
    },
    {
      "anonymous": false,
      "inputs": [
        {
          "indexed": true,
          "internalType": "uint256",
          "name": "tokenId",
          "type": "uint256"
        },
        {
          "indexed": false,
          "internalType": "address",
          "name": "proxy",
          "type": "address"
        }
      ],
      "name": "ProxyDeployed",
      "type": "event"
    },
    {
      "anonymous": false,
      "inputs": [
        {
          "indexed": true,
          "internalType": "address",
          "name": "depositor",
          "type": "address"
        },
        {
          "indexed": false,
          "internalType": "uint256",
          "name": "amount",
          "type": "uint256"
        }
      ],
      "name": "RewardDeposited",
      "type": "event"
    },
    {
      "anonymous": false,
      "inputs": [
        {
          "indexed": true,
          "internalType": "uint256",
          "name": "tokenId",
          "type": "uint256"
        },
        {
          "indexed": true,
          "internalType": "address",
          "name": "token",
          "type": "address"
        },
        {
          "indexed": false,
          "internalType": "uint256",
          "name": "amount",
          "type": "uint256"
        }
      ],
      "name": "Staked",
      "type": "event"
    },
    {
      "anonymous": false,
      "inputs": [
        {
          "indexed": true,
          "internalType": "address",
          "name": "from",
          "type": "address"
        },
        {
          "indexed": true,
          "internalType": "address",
          "name": "to",
          "type": "address"
        },
        {
          "indexed": true,
          "internalType": "uint256",
          "name": "tokenId",
          "type": "uint256"
        }
      ],
      "name": "Transfer",
      "type": "event"
    },
    {
      "anonymous": false,
      "inputs": [
        {
          "indexed": true,
          "internalType": "uint256",
          "name": "tokenId",
          "type": "uint256"
        },
        {
          "indexed": true,
          "internalType": "address",
          "name": "token",
          "type": "address"
        },
        {
          "indexed": false,
          "internalType": "uint256",
          "name": "amount",
          "type": "uint256"
        }
      ],
      "name": "Withdrawn",
      "type": "event"
    },
    {
      "inputs": [],
      "name": "SCALING_FACTOR",
      "outputs": [
        {
          "internalType": "uint256",
          "name": "",
          "type": "uint256"
        }
      ],
      "stateMutability": "view",
      "type": "function"
    },
    {
      "inputs": [
        {
          "internalType": "uint256",
          "name": "tokenId",
          "type": "uint256"
        },
        {
          "internalType": "uint256",
          "name": "amount",
          "type": "uint256"
        }
      ],
      "name": "addStake",
      "outputs": [],
      "stateMutability": "nonpayable",
      "type": "function"
    },
    {
      "inputs": [
        {
          "internalType": "address",
          "name": "to",
          "type": "address"
        },
        {
          "internalType": "uint256",
          "name": "tokenId",
          "type": "uint256"
        }
      ],
      "name": "approve",
      "outputs": [],
      "stateMutability": "nonpayable",
      "type": "function"
    },
    {
      "inputs": [
        {
          "internalType": "address",
          "name": "owner",
          "type": "address"
        }
      ],
      "name": "balanceOf",
      "outputs": [
        {
          "internalType": "uint256",
          "name": "",
          "type": "uint256"
        }
      ],
      "stateMutability": "view",
      "type": "function"
    },
    {
      "inputs": [
        {
          "internalType": "uint256",
          "name": "tokenId",
          "type": "uint256"
        },
        {
          "internalType": "address",
          "name": "delegatee",
          "type": "address"
        }
      ],
      "name": "delegateStakedTokens",
      "outputs": [],
      "stateMutability": "nonpayable",
      "type": "function"
    },
    {
      "inputs": [
        {
          "internalType": "uint256",
          "name": "amount",
          "type": "uint256"
        }
      ],
      "name": "depositRewards",
      "outputs": [],
      "stateMutability": "nonpayable",
      "type": "function"
    },
    {
      "inputs": [],
      "name": "distributionRate",
      "outputs": [
        {
          "internalType": "uint256",
          "name": "",
          "type": "uint256"
        }
      ],
      "stateMutability": "view",
      "type": "function"
    },
    {
      "inputs": [
        {
          "internalType": "address",
          "name": "to",
          "type": "address"
        }
      ],
      "name": "escapeHatch",
      "outputs": [],
      "stateMutability": "nonpayable",
      "type": "function"
    },
    {
      "inputs": [
        {
          "internalType": "uint256",
          "name": "tokenId",
          "type": "uint256"
        }
      ],
      "name": "getAccruedRewards",
      "outputs": [
        {
          "internalType": "uint256",
          "name": "",
          "type": "uint256"
        }
      ],
      "stateMutability": "view",
      "type": "function"
    },
    {
      "inputs": [
        {
          "internalType": "uint256",
          "name": "tokenId",
          "type": "uint256"
        }
      ],
      "name": "getApproved",
      "outputs": [
        {
          "internalType": "address",
          "name": "",
          "type": "address"
        }
      ],
      "stateMutability": "view",
      "type": "function"
    },
    {
      "inputs": [],
      "name": "getCurrentYieldPerToken",
      "outputs": [
        {
          "internalType": "uint256",
          "name": "",
          "type": "uint256"
        }
      ],
      "stateMutability": "view",
      "type": "function"
    },
    {
      "inputs": [],
      "name": "getRewardPoolBalance",
      "outputs": [
        {
          "internalType": "uint256",
          "name": "",
          "type": "uint256"
        }
      ],
      "stateMutability": "view",
      "type": "function"
    },
    {
      "inputs": [
        {
          "internalType": "uint256",
          "name": "tokenId",
          "type": "uint256"
        }
      ],
      "name": "getStakeInfo",
      "outputs": [
        {
          "internalType": "uint256",
          "name": "stakedAmount",
          "type": "uint256"
        },
        {
          "internalType": "uint256",
          "name": "stakeTimestamp",
          "type": "uint256"
        },
        {
          "internalType": "uint256",
          "name": "accumulatedStakeSeconds",
          "type": "uint256"
        },
        {
          "internalType": "uint256",
          "name": "pendingReward",
          "type": "uint256"
        },
        {
          "internalType": "address",
          "name": "proxyAddress",
          "type": "address"
        }
      ],
      "stateMutability": "view",
      "type": "function"
    },
    {
      "inputs": [],
      "name": "getStakingStats",
      "outputs": [
        {
          "internalType": "uint256",
          "name": "_totalStakeSeconds",
          "type": "uint256"
        },
        {
          "internalType": "uint256",
          "name": "_totalRewardPoolBalance",
          "type": "uint256"
        },
        {
          "internalType": "uint256",
          "name": "_distributionRate",
          "type": "uint256"
        }
      ],
      "stateMutability": "view",
      "type": "function"
    },
    {
      "inputs": [],
      "name": "getTotalStakedTokens",
      "outputs": [
        {
          "internalType": "uint256",
          "name": "totalStakedTokens",
          "type": "uint256"
        }
      ],
      "stateMutability": "view",
      "type": "function"
    },
    {
      "inputs": [],
      "name": "governanceToken",
      "outputs": [
        {
          "internalType": "address",
          "name": "",
          "type": "address"
        }
      ],
      "stateMutability": "view",
      "type": "function"
    },
    {
      "inputs": [
        {
          "internalType": "address",
          "name": "owner",
          "type": "address"
        },
        {
          "internalType": "address",
          "name": "operator",
          "type": "address"
        }
      ],
      "name": "isApprovedForAll",
      "outputs": [
        {
          "internalType": "bool",
          "name": "",
          "type": "bool"
        }
      ],
      "stateMutability": "view",
      "type": "function"
    },
    {
      "inputs": [
        {
          "internalType": "address",
          "name": "to",
          "type": "address"
        },
        {
          "internalType": "uint256",
          "name": "amount",
          "type": "uint256"
        },
        {
          "internalType": "string",
          "name": "uri",
          "type": "string"
        }
      ],
      "name": "mint",
      "outputs": [],
      "stateMutability": "nonpayable",
      "type": "function"
    },
    {
      "inputs": [],
      "name": "name",
      "outputs": [
        {
          "internalType": "string",
          "name": "",
          "type": "string"
        }
      ],
      "stateMutability": "view",
      "type": "function"
    },
    {
      "inputs": [],
      "name": "owner",
      "outputs": [
        {
          "internalType": "address",
          "name": "",
          "type": "address"
        }
      ],
      "stateMutability": "view",
      "type": "function"
    },
    {
      "inputs": [
        {
          "internalType": "uint256",
          "name": "tokenId",
          "type": "uint256"
        }
      ],
      "name": "ownerOf",
      "outputs": [
        {
          "internalType": "address",
          "name": "",
          "type": "address"
        }
      ],
      "stateMutability": "view",
      "type": "function"
    },
    {
      "inputs": [],
      "name": "renounceOwnership",
      "outputs": [],
      "stateMutability": "nonpayable",
      "type": "function"
    },
    {
      "inputs": [
        {
          "internalType": "address",
          "name": "from",
          "type": "address"
        },
        {
          "internalType": "address",
          "name": "to",
          "type": "address"
        },
        {
          "internalType": "uint256",
          "name": "tokenId",
          "type": "uint256"
        }
      ],
      "name": "safeTransferFrom",
      "outputs": [],
      "stateMutability": "nonpayable",
      "type": "function"
    },
    {
      "inputs": [
        {
          "internalType": "address",
          "name": "from",
          "type": "address"
        },
        {
          "internalType": "address",
          "name": "to",
          "type": "address"
        },
        {
          "internalType": "uint256",
          "name": "tokenId",
          "type": "uint256"
        },
        {
          "internalType": "bytes",
          "name": "data",
          "type": "bytes"
        }
      ],
      "name": "safeTransferFrom",
      "outputs": [],
      "stateMutability": "nonpayable",
      "type": "function"
    },
    {
      "inputs": [
        {
          "internalType": "address",
          "name": "operator",
          "type": "address"
        },
        {
          "internalType": "bool",
          "name": "approved",
          "type": "bool"
        }
      ],
      "name": "setApprovalForAll",
      "outputs": [],
      "stateMutability": "nonpayable",
      "type": "function"
    },
    {
      "inputs": [
        {
          "internalType": "uint256",
          "name": "rate",
          "type": "uint256"
        }
      ],
      "name": "setDistributionRate",
      "outputs": [],
      "stateMutability": "nonpayable",
      "type": "function"
    },
    {
      "inputs": [
        {
          "internalType": "uint256",
          "name": "",
          "type": "uint256"
        }
      ],
      "name": "stakeProxies",
      "outputs": [
        {
          "internalType": "address",
          "name": "",
          "type": "address"
        }
      ],
      "stateMutability": "view",
      "type": "function"
    },
    {
      "inputs": [
        {
          "internalType": "bytes4",
          "name": "interfaceId",
          "type": "bytes4"
        }
      ],
      "name": "supportsInterface",
      "outputs": [
        {
          "internalType": "bool",
          "name": "",
          "type": "bool"
        }
      ],
      "stateMutability": "view",
      "type": "function"
    },
    {
      "inputs": [],
      "name": "symbol",
      "outputs": [
        {
          "internalType": "string",
          "name": "",
          "type": "string"
        }
      ],
      "stateMutability": "view",
      "type": "function"
    },
    {
      "inputs": [
        {
          "internalType": "uint256",
          "name": "index",
          "type": "uint256"
        }
      ],
      "name": "tokenByIndex",
      "outputs": [
        {
          "internalType": "uint256",
          "name": "",
          "type": "uint256"
        }
      ],
      "stateMutability": "view",
      "type": "function"
    },
    {
      "inputs": [
        {
          "internalType": "address",
          "name": "owner",
          "type": "address"
        },
        {
          "internalType": "uint256",
          "name": "index",
          "type": "uint256"
        }
      ],
      "name": "tokenOfOwnerByIndex",
      "outputs": [
        {
          "internalType": "uint256",
          "name": "",
          "type": "uint256"
        }
      ],
      "stateMutability": "view",
      "type": "function"
    },
    {
      "inputs": [
        {
          "internalType": "uint256",
          "name": "tokenId",
          "type": "uint256"
        }
      ],
      "name": "tokenURI",
      "outputs": [
        {
          "internalType": "string",
          "name": "",
          "type": "string"
        }
      ],
      "stateMutability": "view",
      "type": "function"
    },
    {
      "inputs": [],
      "name": "totalStakeSeconds",
      "outputs": [
        {
          "internalType": "uint256",
          "name": "",
          "type": "uint256"
        }
      ],
      "stateMutability": "view",
      "type": "function"
    },
    {
      "inputs": [],
      "name": "totalSupply",
      "outputs": [
        {
          "internalType": "uint256",
          "name": "",
          "type": "uint256"
        }
      ],
      "stateMutability": "view",
      "type": "function"
    },
    {
      "inputs": [
        {
          "internalType": "address",
          "name": "from",
          "type": "address"
        },
        {
          "internalType": "address",
          "name": "to",
          "type": "address"
        },
        {
          "internalType": "uint256",
          "name": "tokenId",
          "type": "uint256"
        }
      ],
      "name": "transferFrom",
      "outputs": [],
      "stateMutability": "nonpayable",
      "type": "function"
    },
    {
      "inputs": [
        {
          "internalType": "address",
          "name": "newOwner",
          "type": "address"
        }
      ],
      "name": "transferOwnership",
      "outputs": [],
      "stateMutability": "nonpayable",
      "type": "function"
    },
    {
      "inputs": [
        {
          "internalType": "uint256",
          "name": "tokenId",
          "type": "uint256"
        },
        {
          "internalType": "uint256",
          "name": "amount",
          "type": "uint256"
        }
      ],
      "name": "withdraw",
      "outputs": [],
      "stateMutability": "nonpayable",
      "type": "function"
    },
    {
      "inputs": [
        {
          "internalType": "uint256",
          "name": "tokenId",
          "type": "uint256"
        }
      ],
      "name": "withdrawRewards",
      "outputs": [],
      "stateMutability": "nonpayable",
      "type": "function"
    }
  ],
  "transactionHash": "0x201af9436ef0aaecf23fe4fdc7a77f33269e908866bc7943ca4d35308bf5437c",
  "args": [
    "0x08f025d49ba896dC3552c315c0A04E4655D813A8",
    "1000000000000000000",
    "0x4006059FF62F6254E1fC8E38B9dff549449AfE69"
  ],
  "numDeployments": 1,
  "solcInputHash": "3ffe9ee3c87cb0e6747e56317d611cc4",
  "bytecode": "0x60806040523480156200001157600080fd5b5060405162003d1038038062003d1083398101604081905262000034916200019b565b806040518060400160405280600c81526020016b48616d73746572766572736560a01b8152506040518060400160405280600381526020016248414d60e81b815250816000908162000087919062000283565b50600162000096828262000283565b50506001600b55506001600160a01b038116620000cd57604051631e4fbdf760e01b81526000600482015260240160405180910390fd5b620000d8816200012c565b506001600160a01b038316620001015760405163e6c4247b60e01b815260040160405180910390fd5b50600e80546001600160a01b0319166001600160a01b039390931692909217909155600f556200034f565b600c80546001600160a01b038381166001600160a01b0319831681179093556040519116919082907f8be0079c531659141344cd1fd0a4f28419497f9722a3daafe3b4186f6b6457e090600090a35050565b80516001600160a01b03811681146200019657600080fd5b919050565b600080600060608486031215620001b157600080fd5b620001bc846200017e565b925060208401519150620001d3604085016200017e565b90509250925092565b634e487b7160e01b600052604160045260246000fd5b600181811c908216806200020757607f821691505b6020821081036200022857634e487b7160e01b600052602260045260246000fd5b50919050565b601f8211156200027e576000816000526020600020601f850160051c81016020861015620002595750805b601f850160051c820191505b818110156200027a5782815560010162000265565b5050505b505050565b81516001600160401b038111156200029f576200029f620001dc565b620002b781620002b08454620001f2565b846200022e565b602080601f831160018114620002ef5760008415620002d65750858301515b600019600386901b1c1916600185901b1785556200027a565b600085815260208120601f198616915b828110156200032057888601518255948401946001909101908401620002ff565b50858210156200033f5787850151600019600388901b60f8161c191681555b5050505050600190811b01905550565b6139b1806200035f6000396000f3fe60806040523480156200001157600080fd5b5060043610620002615760003560e01c806370a082311162000149578063b88d4fde11620000c7578063e985e9c51162000086578063e985e9c51462000586578063ef4cadc5146200059d578063f2fde38b14620005ad578063f96dae0a14620005c4578063fd2b520214620005d857600080fd5b8063b88d4fde1462000511578063c1dd60841462000528578063c87b56dd146200054e578063d3fc98641462000565578063d854fb75146200057c57600080fd5b80638da5cb5b11620001145780638da5cb5b14620004b05780639342c8f414620004c257806395d89b4114620004d9578063a142d60814620004e3578063a22cb46514620004fa57600080fd5b806370a082311462000461578063715018a614620004785780638401011214620004825780638bdf67f2146200049957600080fd5b806323b872dd11620001e35780634a59a4e711620001a25780634a59a4e714620003e65780634f6ccce714620003fd57806351d1859814620004145780635f625c6d146200041e5780636352211e146200044a57600080fd5b806323b872dd14620003805780632f745c5914620003975780633099c68314620003ae57806342842e0e14620003b8578063441a3e7014620003cf57600080fd5b8063081812fc1162000230578063081812fc14620002ce578063095ea7b314620002fe57806309813482146200031757806318160ddd146200036057806319983251146200036957600080fd5b806301ffc9a7146200026657806302cb6b7f14620002925780630473cb5c14620002ab57806306fdde0314620002b5575b600080fd5b6200027d6200027736600462002b6a565b620005ef565b60405190151581526020015b60405180910390f35b6200029c600f5481565b60405190815260200162000289565b6200029c60125481565b620002bf62000602565b60405162000289919062002bde565b620002e5620002df36600462002bf3565b6200069c565b6040516001600160a01b03909116815260200162000289565b620003156200030f36600462002c23565b620006c8565b005b6200032e6200032836600462002bf3565b620006d9565b6040805195865260208601949094529284019190915260608301526001600160a01b0316608082015260a00162000289565b6008546200029c565b620003156200037a36600462002bf3565b6200081f565b620003156200039136600462002c52565b62000850565b6200029c620003a836600462002c23565b620008e5565b6200029c6200094e565b62000315620003c936600462002c52565b62000999565b62000315620003e036600462002c98565b620009bb565b6200029c620003f736600462002bf3565b62000c4f565b6200029c6200040e36600462002bf3565b62000c5c565b6200029c62000cbb565b620002e56200042f36600462002bf3565b6010602052600090815260409020546001600160a01b031681565b620002e56200045b36600462002bf3565b62000dee565b6200029c6200047236600462002cbb565b62000dfb565b6200031562000e45565b620003156200049336600462002cdb565b62000e5d565b62000315620004aa36600462002bf3565b62000ffc565b600c546001600160a01b0316620002e5565b62000315620004d336600462002bf3565b620010de565b620002bf62001173565b62000315620004f436600462002cbb565b62001184565b620003156200050b36600462002d1d565b6200132f565b620003156200052236600462002de3565b6200133c565b6200053262001358565b6040805193845260208401929092529082015260600162000289565b620002bf6200055f36600462002bf3565b620013df565b620003156200057636600462002e6c565b620013ec565b6200029c6200161c565b6200027d6200059736600462002ee0565b62001691565b6200029c670de0b6b3a764000081565b62000315620005be36600462002cbb565b620016bf565b600e54620002e5906001600160a01b031681565b62000315620005e936600462002c98565b62001700565b6000620005fc826200186a565b92915050565b606060008054620006139062002f13565b80601f0160208091040260200160405190810160405280929190818152602001828054620006419062002f13565b8015620006925780601f10620006665761010080835404028352916020019162000692565b820191906000526020600020905b8154815290600101906020018083116200067457829003601f168201915b5050505050905090565b6000620006a98262001892565b506000828152600460205260409020546001600160a01b0316620005fc565b620006d5828233620018cd565b5050565b60008080808080620006eb8762000dee565b6001600160a01b03160362000713576040516307ed98ed60e31b815260040160405180910390fd5b6000868152601060209081526040808320546011909252808320600e5491516370a0823160e01b81526001600160a01b0393841660048201819052949193919291909116906370a0823190602401602060405180830381865afa1580156200077f573d6000803e3d6000fd5b505050506040513d601f19601f82011682018060405250810190620007a5919062002f4f565b60028301549091508115801590620007c1575060008360010154115b15620007f9576000836001015442620007db919062002f7f565b9050620007e9818462002f95565b620007f5908362002faf565b9150505b8254829082620008098d620018dc565b929d919c509a5090985093965092945050505050565b620008296200197a565b806000036200084b57604051636a43f8d160e01b815260040160405180910390fd5b600f55565b6001600160a01b0382166200088057604051633250574960e11b8152600060048201526024015b60405180910390fd5b60006200088f838333620019a9565b9050836001600160a01b0316816001600160a01b031614620008df576040516364283d7b60e01b81526001600160a01b038086166004830152602482018490528216604482015260640162000877565b50505050565b6000620008f28362000dfb565b8210620009255760405163295f44f760e21b81526001600160a01b03841660048201526024810183905260440162000877565b506001600160a01b03919091166000908152600660209081526040808320938352929052205490565b6000806200095b62000cbb565b9050806000036200096e57600091505090565b80670de0b6b3a7640000600f5462000987919062002f95565b62000993919062002fc5565b91505090565b620009b6838383604051806020016040528060008152506200133c565b505050565b620009c5620019b8565b8133620009d28262000dee565b6001600160a01b03161462000a0457604051630da7a30b60e31b81526004810182905233602482015260440162000877565b62000a0f83620019e3565b8160000362000a315760405163162908e360e11b815260040160405180910390fd5b6000838152601060205260409020546001600160a01b03168062000a685760405163e6c4247b60e01b815260040160405180910390fd5b600e546040516370a0823160e01b81526001600160a01b03838116600483015260009216906370a0823190602401602060405180830381865afa15801562000ab4573d6000803e3d6000fd5b505050506040513d601f19601f8201168201806040525081019062000ada919062002f4f565b90508084111562000b09576040516322df051360e11b8152600481018590526024810182905260440162000877565b80840362000b9b5760008111801562000b32575060008581526011602052604090206001015415155b1562000b7e5760008581526011602052604081206001015462000b56904262002f7f565b905062000b64818362002f95565b6012600082825462000b77919062002f7f565b9091555050505b600085815260116020526040812081815560018101829055600201555b60405163f3fef3a360e01b8152336004820152602481018590526001600160a01b0383169063f3fef3a390604401600060405180830381600087803b15801562000be457600080fd5b505af115801562000bf9573d6000803e3d6000fd5b5050600e546040518781526001600160a01b0390911692508791507fcf7d23a3cbe4e8b36ff82fd1b05b1b17373dc7804b4ebbd6e2356716ef2023729060200160405180910390a3505050620006d56001600b55565b6000620005fc8262001b0b565b600062000c6860085490565b821062000c935760405163295f44f760e21b8152600060048201526024810183905260440162000877565b6008828154811062000ca95762000ca962002fe8565b90600052602060002001549050919050565b600d54600090815b8181101562000de9576040516331a9108f60e11b8152600481018290523090636352211e90602401602060405180830381865afa92505050801562000d27575060408051601f3d908101601f1916820190925262000d249181019062002ffe565b60015b1562000de0576001600160a01b0381161562000dde576000828152601060205260409020546001600160a01b0316801562000ddc57600e546040516370a0823160e01b81526001600160a01b038381166004830152909116906370a0823190602401602060405180830381865afa15801562000da7573d6000803e3d6000fd5b505050506040513d601f19601f8201168201806040525081019062000dcd919062002f4f565b62000dd9908662002faf565b94505b505b505b60010162000cc3565b505090565b6000620005fc8262001892565b60006001600160a01b03821662000e29576040516322718ad960e21b81526000600482015260240162000877565b506001600160a01b031660009081526003602052604090205490565b62000e4f6200197a565b62000e5b600062001c5c565b565b813362000e6a8262000dee565b6001600160a01b03161462000e9c57604051630da7a30b60e31b81526004810182905233602482015260440162000877565b62000ea783620019e3565b6001600160a01b03821662000eff5760405162461bcd60e51b815260206004820152601960248201527f496e76616c69642064656c656761746565206164647265737300000000000000604482015260640162000877565b6000838152601060205260409020546001600160a01b03168062000f5b5760405162461bcd60e51b8152602060048201526012602482015271273790383937bc3c903337b9103a37b5b2b760711b604482015260640162000877565b6040516317066a5760e21b81526001600160a01b038481166004830152821690635c19a95c90602401600060405180830381600087803b15801562000f9f57600080fd5b505af115801562000fb4573d6000803e3d6000fd5b5050600e546040516001600160a01b038781169450909116915086907fc63d0b9ba5381323a1c68afefbc365332ce15e1de6aab6369b0d2c2c8fbba24690600090a450505050565b8060000362001029576040516322df051360e11b8152600160048201526000602482015260440162000877565b600e546040516323b872dd60e01b81526001600160a01b03909116906323b872dd906200105f903390309086906004016200301e565b6020604051808303816000875af11580156200107f573d6000803e3d6000fd5b505050506040513d601f19601f82011682018060405250810190620010a5919062003042565b5060405181815233907f7dbc080e4530c8bcf265eb5c9a35ae096ca1eb607b7e802b96581ef4c5e1a7039060200160405180910390a250565b620010e8620019b8565b8033620010f58262000dee565b6001600160a01b0316146200112757604051630da7a30b60e31b81526004810182905233602482015260440162000877565b6200113282620019e3565b60006200113f8362001cae565b905080600003620011635760405163afb0be3360e01b815260040160405180910390fd5b5050620011706001600b55565b50565b606060018054620006139062002f13565b6200118e6200197a565b6001600160a01b038116620011d85760405162461bcd60e51b815260206004820152600f60248201526e496e76616c6964206164647265737360881b604482015260640162000877565b600e546040516370a0823160e01b81523060048201526000916001600160a01b0316906370a0823190602401602060405180830381865afa15801562001222573d6000803e3d6000fd5b505050506040513d601f19601f8201168201806040525081019062001248919062002f4f565b9050806000036200126c5760405163afb0be3360e01b815260040160405180910390fd5b600e5460405163a9059cbb60e01b81526001600160a01b038481166004830152602482018490529091169063a9059cbb906044016020604051808303816000875af1158015620012c0573d6000803e3d6000fd5b505050506040513d601f19601f82011682018060405250810190620012e6919062003042565b50816001600160a01b03167f87c4a0ae0deffc947cbfae1d7b5819ae561c62495e16b228178af69a7d743b34826040516200132391815260200190565b60405180910390a25050565b620006d533838362001f9a565b6200134984848462000850565b620008df33858585856200203b565b601254600e546040516370a0823160e01b8152306004820152600092839283926001600160a01b03909116906370a0823190602401602060405180830381865afa158015620013ab573d6000803e3d6000fd5b505050506040513d601f19601f82011682018060405250810190620013d1919062002f4f565b600f54925092509250909192565b6060620005fc8262002173565b6001600160a01b038316620014145760405163e6c4247b60e01b815260040160405180910390fd5b81600003620014365760405163162908e360e11b815260040160405180910390fd5b600d805460009182620014498362003062565b9190505590506200145b84826200228d565b620014678183620022a9565b600e5460405160009130916001600160a01b039091169084906200148b9062002b45565b62001499939291906200301e565b604051809103906000f080158015620014b6573d6000803e3d6000fd5b5060008381526010602090815260409182902080546001600160a01b0319166001600160a01b038516908117909155915191825291925083917ff3f895fae43fb531969163329a960d851838c3bfdf64f76e02aa2e1a9e68e3a8910160405180910390a26040805160608101825242808252602080830191825260008385018181528782526011909252849020925183559051600183015551600290910155600e5490516323b872dd60e01b81526001600160a01b03909116906323b872dd906200158a903390859089906004016200301e565b6020604051808303816000875af1158015620015aa573d6000803e3d6000fd5b505050506040513d601f19601f82011682018060405250810190620015d0919062003042565b50600e546040518581526001600160a01b039091169083907f18dcd430020e4d4899772fd94a8b40451dc5044dfb70bc46b532eeae431c864f9060200160405180910390a35050505050565b600e546040516370a0823160e01b81523060048201526000916001600160a01b0316906370a0823190602401602060405180830381865afa15801562001666573d6000803e3d6000fd5b505050506040513d601f19601f820116820180604052508101906200168c919062002f4f565b905090565b6001600160a01b03918216600090815260056020908152604080832093909416825291909152205460ff1690565b620016c96200197a565b6001600160a01b038116620016f557604051631e4fbdf760e01b81526000600482015260240162000877565b620011708162001c5c565b81336200170d8262000dee565b6001600160a01b0316146200173f57604051630da7a30b60e31b81526004810182905233602482015260440162000877565b6200174a83620019e3565b816000036200176c5760405163162908e360e11b815260040160405180910390fd5b6000838152601060205260409020546001600160a01b031680620017a35760405163e6c4247b60e01b815260040160405180910390fd5b600e546040516323b872dd60e01b81526001600160a01b03909116906323b872dd90620017d9903390859088906004016200301e565b6020604051808303816000875af1158015620017f9573d6000803e3d6000fd5b505050506040513d601f19601f820116820180604052508101906200181f919062003042565b50600e546040518481526001600160a01b039091169085907f18dcd430020e4d4899772fd94a8b40451dc5044dfb70bc46b532eeae431c864f9060200160405180910390a350505050565b60006001600160e01b03198216632483248360e11b1480620005fc5750620005fc82620022fb565b6000818152600260205260408120546001600160a01b031680620005fc57604051637e27328960e01b81526004810184905260240162000877565b620009b6838383600162002323565b600080620018ea8362001b0b565b600e546040516370a0823160e01b81523060048201529192506000916001600160a01b03909116906370a0823190602401602060405180830381865afa15801562001939573d6000803e3d6000fd5b505050506040513d601f19601f820116820180604052508101906200195f919062002f4f565b905080821162001970578162001972565b805b949350505050565b600c546001600160a01b0316331462000e5b5760405163118cdaa760e01b815233600482015260240162000877565b60006200197284848462002434565b6002600b5403620019dc57604051633ee5aeb560e01b815260040160405180910390fd5b6002600b55565b6000818152601160209081526040808320601090925280832054600e5491516370a0823160e01b81526001600160a01b039182166004820181905293949291909116906370a0823190602401602060405180830381865afa15801562001a4d573d6000803e3d6000fd5b505050506040513d601f19601f8201168201806040525081019062001a73919062002f4f565b9050826001015460000362001a9957825462001a90574262001a93565b82545b60018401555b801562001aff57600083600101544262001ab4919062002f7f565b9050600062001ac4828462002f95565b90508085600201600082825462001adc919062002faf565b92505081905550806012600082825462001af7919062002faf565b909155505050505b50504260019091015550565b6000818152601160205260408120601254820362001b2c5750600092915050565b600281015460008481526010602052604080822054600e5491516370a0823160e01b81526001600160a01b0391821660048201819052939291909116906370a0823190602401602060405180830381865afa15801562001b90573d6000803e3d6000fd5b505050506040513d601f19601f8201168201806040525081019062001bb6919062002f4f565b905060008111801562001bcd575060008460010154115b1562001c0557600084600101544262001be7919062002f7f565b905062001bf5818362002f95565b62001c01908562002faf565b9350505b6000601254670de0b6b3a764000085600f5462001c23919062002f95565b62001c2f919062002f95565b62001c3b919062002fc5565b905062001c51670de0b6b3a76400008262002fc5565b979650505050505050565b600c80546001600160a01b038381166001600160a01b0319831681179093556040519116919082907f8be0079c531659141344cd1fd0a4f28419497f9722a3daafe3b4186f6b6457e090600090a35050565b6000818152601160209081526040808320601090925280832054600e5491516370a0823160e01b81526001600160a01b039182166004820181905292859216906370a0823190602401602060405180830381865afa15801562001d15573d6000803e3d6000fd5b505050506040513d601f19601f8201168201806040525081019062001d3b919062002f4f565b90506000808211801562001d53575060008460010154115b1562001d7f57600084600101544262001d6d919062002f7f565b905062001d7b818462002f95565b9150505b600081856002015462001d93919062002faf565b905060008111801562001da857506000601254115b1562001f84576000601254670de0b6b3a764000083600f5462001dcc919062002f95565b62001dd8919062002f95565b62001de4919062002fc5565b905062001dfa670de0b6b3a76400008262002fc5565b600e546040516370a0823160e01b81523060048201529192506000916001600160a01b03909116906370a0823190602401602060405180830381865afa15801562001e49573d6000803e3d6000fd5b505050506040513d601f19601f8201168201806040525081019062001e6f919062002f4f565b905080821162001e80578162001e82565b805b9150811562001f8157828460125462001e9c919062002faf565b62001ea8919062002f7f565b60125560006002880155426001880155600e5460405163a9059cbb60e01b8152336004820152602481018490526001600160a01b039091169063a9059cbb906044016020604051808303816000875af115801562001f0a573d6000803e3d6000fd5b505050506040513d601f19601f8201168201806040525081019062001f30919062003042565b50600e546040518381526001600160a01b03909116908a907fcf7d23a3cbe4e8b36ff82fd1b05b1b17373dc7804b4ebbd6e2356716ef2023729060200160405180910390a350979650505050505050565b50505b5050426001909301929092555060009392505050565b6001600160a01b03821662001fce57604051630b61174360e31b81526001600160a01b038316600482015260240162000877565b6001600160a01b03838116600081815260056020908152604080832094871680845294825291829020805460ff191686151590811790915591519182527f17307eab39ab6107e8899845ad3d59bd9653f200f220920489ca2b5937696c31910160405180910390a3505050565b6001600160a01b0383163b156200216c57604051630a85bd0160e11b81526001600160a01b0384169063150b7a0290620020809088908890879087906004016200307e565b6020604051808303816000875af1925050508015620020be575060408051601f3d908101601f19168201909252620020bb91810190620030bd565b60015b6200212c573d808015620020ef576040519150601f19603f3d011682016040523d82523d6000602084013e620020f4565b606091505b5080516000036200212457604051633250574960e11b81526001600160a01b038516600482015260240162000877565b805181602001fd5b6001600160e01b03198116630a85bd0160e11b146200216a57604051633250574960e11b81526001600160a01b038516600482015260240162000877565b505b5050505050565b6060620021808262001892565b506000828152600a6020526040812080546200219c9062002f13565b80601f0160208091040260200160405190810160405280929190818152602001828054620021ca9062002f13565b80156200221b5780601f10620021ef576101008083540402835291602001916200221b565b820191906000526020600020905b815481529060010190602001808311620021fd57829003601f168201915b5050505050905060006200223a60408051602081019091526000815290565b905080516000036200224d575092915050565b815115620022825780826040516020016200226a929190620030dd565b60405160208183030381529060405292505050919050565b620019728462002510565b620006d58282604051806020016040528060008152506200258e565b6000828152600a60205260409020620022c382826200315c565b506040518281527ff8e1a15aba9398e019f0b49df1a4fde98ee17ae345cb5f6b5e2c27f5033e8ce79060200160405180910390a15050565b60006001600160e01b0319821663780e9d6360e01b1480620005fc5750620005fc82620025aa565b80806200233857506001600160a01b03821615155b15620024045760006200234b8462001892565b90506001600160a01b03831615801590620023785750826001600160a01b0316816001600160a01b031614155b80156200238e57506200238c818462001691565b155b15620023b95760405163a9fbf51f60e01b81526001600160a01b038416600482015260240162000877565b8115620024025783856001600160a01b0316826001600160a01b03167f8c5be1e5ebec7d5bd14f71427d1e84f3dd0314c0f7b2291e5b200ac8c7c3b92560405160405180910390a45b505b5050600090815260046020526040902080546001600160a01b0319166001600160a01b0392909216919091179055565b60008062002444858585620025fd565b90506001600160a01b038116620024a4576200249e84600880546000838152600960205260408120829055600182018355919091527ff3f7a9fe364faab93b216da50a3214154f22a0a2b415b23a84c8169e8b636ee30155565b620024ca565b846001600160a01b0316816001600160a01b031614620024ca57620024ca8185620026fd565b6001600160a01b038516620024ea57620024e48462002781565b62001972565b846001600160a01b0316816001600160a01b03161462001972576200197285856200283b565b60606200251d8262001892565b5060006200253660408051602081019091526000815290565b9050600081511162002558576040518060200160405280600081525062002587565b8062002564846200288f565b60405160200162002577929190620030dd565b6040516020818303038152906040525b9392505050565b6200259a838362002929565b620009b63360008585856200203b565b60006001600160e01b031982166380ac58cd60e01b1480620025dc57506001600160e01b03198216635b5e139f60e01b145b80620005fc57506301ffc9a760e01b6001600160e01b0319831614620005fc565b6000828152600260205260408120546001600160a01b03908116908316156200262d576200262d81848662002994565b6001600160a01b038116156200266e576200264d60008560008062002323565b6001600160a01b038116600090815260036020526040902080546000190190555b6001600160a01b038516156200269e576001600160a01b0385166000908152600360205260409020805460010190555b60008481526002602052604080822080546001600160a01b0319166001600160a01b0389811691821790925591518793918516917fddf252ad1be2c89b69c2b068fc378daa952ba7f163c4a11628f55a4df523b3ef91a4949350505050565b60006200270a8362000dfb565b6000838152600760209081526040808320546001600160a01b03881684526006909252909120919250908183146200276257600083815260208281526040808320548584528184208190558352600790915290208290555b6000938452600760209081526040808620869055938552525081205550565b600854600090620027959060019062002f7f565b60008381526009602052604081205460088054939450909284908110620027c057620027c062002fe8565b906000526020600020015490508060088381548110620027e457620027e462002fe8565b60009182526020808320909101929092558281526009909152604080822084905585825281205560088054806200281f576200281f62003229565b6001900381819060005260206000200160009055905550505050565b600060016200284a8462000dfb565b62002856919062002f7f565b6001600160a01b039093166000908152600660209081526040808320868452825280832085905593825260079052919091209190915550565b606060006200289e83620029fe565b600101905060008167ffffffffffffffff811115620028c157620028c162002d50565b6040519080825280601f01601f191660200182016040528015620028ec576020820181803683370190505b5090508181016020015b600019016f181899199a1a9b1b9c1cb0b131b232b360811b600a86061a8153600a8504945084620028f657509392505050565b6001600160a01b0382166200295557604051633250574960e11b81526000600482015260240162000877565b60006200296583836000620019a9565b90506001600160a01b03811615620009b6576040516339e3563760e11b81526000600482015260240162000877565b620029a183838362002add565b620009b6576001600160a01b038316620029d257604051637e27328960e01b81526004810182905260240162000877565b60405163177e802f60e01b81526001600160a01b03831660048201526024810182905260440162000877565b60008072184f03e93ff9f4daa797ed6e38ed64bf6a1f0160401b831062002a3e5772184f03e93ff9f4daa797ed6e38ed64bf6a1f0160401b830492506040015b6d04ee2d6d415b85acef8100000000831062002a6b576d04ee2d6d415b85acef8100000000830492506020015b662386f26fc10000831062002a8a57662386f26fc10000830492506010015b6305f5e100831062002aa3576305f5e100830492506008015b612710831062002ab857612710830492506004015b6064831062002acb576064830492506002015b600a8310620005fc5760010192915050565b60006001600160a01b03831615801590620019725750826001600160a01b0316846001600160a01b0316148062002b1b575062002b1b848462001691565b80620019725750506000908152600460205260409020546001600160a01b03908116911614919050565b61073c806200324083390190565b6001600160e01b0319811681146200117057600080fd5b60006020828403121562002b7d57600080fd5b8135620025878162002b53565b60005b8381101562002ba757818101518382015260200162002b8d565b50506000910152565b6000815180845262002bca81602086016020860162002b8a565b601f01601f19169290920160200192915050565b60208152600062002587602083018462002bb0565b60006020828403121562002c0657600080fd5b5035919050565b6001600160a01b03811681146200117057600080fd5b6000806040838503121562002c3757600080fd5b823562002c448162002c0d565b946020939093013593505050565b60008060006060848603121562002c6857600080fd5b833562002c758162002c0d565b9250602084013562002c878162002c0d565b929592945050506040919091013590565b6000806040838503121562002cac57600080fd5b50508035926020909101359150565b60006020828403121562002cce57600080fd5b8135620025878162002c0d565b6000806040838503121562002cef57600080fd5b82359150602083013562002d038162002c0d565b809150509250929050565b80151581146200117057600080fd5b6000806040838503121562002d3157600080fd5b823562002d3e8162002c0d565b9150602083013562002d038162002d0e565b634e487b7160e01b600052604160045260246000fd5b600067ffffffffffffffff8084111562002d845762002d8462002d50565b604051601f8501601f19908116603f0116810190828211818310171562002daf5762002daf62002d50565b8160405280935085815286868601111562002dc957600080fd5b858560208301376000602087830101525050509392505050565b6000806000806080858703121562002dfa57600080fd5b843562002e078162002c0d565b9350602085013562002e198162002c0d565b925060408501359150606085013567ffffffffffffffff81111562002e3d57600080fd5b8501601f8101871362002e4f57600080fd5b62002e608782356020840162002d66565b91505092959194509250565b60008060006060848603121562002e8257600080fd5b833562002e8f8162002c0d565b925060208401359150604084013567ffffffffffffffff81111562002eb357600080fd5b8401601f8101861362002ec557600080fd5b62002ed68682356020840162002d66565b9150509250925092565b6000806040838503121562002ef457600080fd5b823562002f018162002c0d565b9150602083013562002d038162002c0d565b600181811c9082168062002f2857607f821691505b60208210810362002f4957634e487b7160e01b600052602260045260246000fd5b50919050565b60006020828403121562002f6257600080fd5b5051919050565b634e487b7160e01b600052601160045260246000fd5b81810381811115620005fc57620005fc62002f69565b8082028115828204841417620005fc57620005fc62002f69565b80820180821115620005fc57620005fc62002f69565b60008262002fe357634e487b7160e01b600052601260045260246000fd5b500490565b634e487b7160e01b600052603260045260246000fd5b6000602082840312156200301157600080fd5b8151620025878162002c0d565b6001600160a01b039384168152919092166020820152604081019190915260600190565b6000602082840312156200305557600080fd5b8151620025878162002d0e565b60006001820162003077576200307762002f69565b5060010190565b6001600160a01b0385811682528416602082015260408101839052608060608201819052600090620030b39083018462002bb0565b9695505050505050565b600060208284031215620030d057600080fd5b8151620025878162002b53565b60008351620030f181846020880162002b8a565b8351908301906200310781836020880162002b8a565b01949350505050565b601f821115620009b6576000816000526020600020601f850160051c810160208610156200313b5750805b601f850160051c820191505b818110156200216a5782815560010162003147565b815167ffffffffffffffff81111562003179576200317962002d50565b62003191816200318a845462002f13565b8462003110565b602080601f831160018114620031c95760008415620031b05750858301515b600019600386901b1c1916600185901b1785556200216a565b600085815260208120601f198616915b82811015620031fa57888601518255948401946001909101908401620031d9565b5085821015620032195787850151600019600388901b60f8161c191681555b5050505050600190811b01905550565b634e487b7160e01b600052603160045260246000fdfe60e060405234801561001057600080fd5b5060405161073c38038061073c83398101604081905261002f916100a1565b6001600160a01b038316158061004c57506001600160a01b038216155b1561006a5760405163e6c4247b60e01b815260040160405180910390fd5b6001600160a01b03928316608052911660a05260c0526100dd565b80516001600160a01b038116811461009c57600080fd5b919050565b6000806000606084860312156100b657600080fd5b6100bf84610085565b92506100cd60208501610085565b9150604084015190509250925092565b60805160a05160c0516105fa6101426000396000818160870152818161020601526104010152600081816101150152818161014f0152818161027c0152818161036a015261048001526000818160ae015281816101d201526103cd01526105fa6000f3fe608060405234801561001057600080fd5b50600436106100625760003560e01c806312065fe01461006757806317d70f7c1461008257806347ccca02146100a95780635c19a95c146100e8578063f3fef3a3146100fd578063fc0c546a14610110575b600080fd5b61006f610137565b6040519081526020015b60405180910390f35b61006f7f000000000000000000000000000000000000000000000000000000000000000081565b6100d07f000000000000000000000000000000000000000000000000000000000000000081565b6040516001600160a01b039091168152602001610079565b6100fb6100f636600461050e565b6101c7565b005b6100fb61010b366004610530565b6103c2565b6100d07f000000000000000000000000000000000000000000000000000000000000000081565b6040516370a0823160e01b81523060048201526000907f00000000000000000000000000000000000000000000000000000000000000006001600160a01b0316906370a0823190602401602060405180830381865afa15801561019e573d6000803e3d6000fd5b505050506040513d601f19601f820116820180604052508101906101c2919061055a565b905090565b336001600160a01b037f0000000000000000000000000000000000000000000000000000000000000000161461023d57604051630da7a30b60e31b81527f000000000000000000000000000000000000000000000000000000000000000060048201523360248201526044015b60405180910390fd5b6001600160a01b0381166102645760405163e6c4247b60e01b815260040160405180910390fd5b6040516001600160a01b0382811660248301526000917f00000000000000000000000000000000000000000000000000000000000000009091169060440160408051601f198184030181529181526020820180516001600160e01b03166317066a5760e21b179052516102d79190610573565b6000604051808303816000865af19150503d8060008114610314576040519150601f19603f3d011682016040523d82523d6000602084013e610319565b606091505b505090508061035e5760405162461bcd60e51b815260206004820152601160248201527011195b1959d85d1a5bdb8819985a5b1959607a1b6044820152606401610234565b816001600160a01b03167f00000000000000000000000000000000000000000000000000000000000000006001600160a01b03167ffb466440952d4558513217294f71a909827df05c3e6a051393676499fc3ffbe060405160405180910390a35050565b336001600160a01b037f0000000000000000000000000000000000000000000000000000000000000000161461043357604051630da7a30b60e31b81527f00000000000000000000000000000000000000000000000000000000000000006004820152336024820152604401610234565b6001600160a01b03821661045a5760405163e6c4247b60e01b815260040160405180910390fd5b60405163a9059cbb60e01b81526001600160a01b038381166004830152602482018390527f0000000000000000000000000000000000000000000000000000000000000000169063a9059cbb906044016020604051808303816000875af11580156104c9573d6000803e3d6000fd5b505050506040513d601f19601f820116820180604052508101906104ed91906105a2565b505050565b80356001600160a01b038116811461050957600080fd5b919050565b60006020828403121561052057600080fd5b610529826104f2565b9392505050565b6000806040838503121561054357600080fd5b61054c836104f2565b946020939093013593505050565b60006020828403121561056c57600080fd5b5051919050565b6000825160005b81811015610594576020818601810151858301520161057a565b506000920191825250919050565b6000602082840312156105b457600080fd5b8151801515811461052957600080fdfea2646970667358221220546ba8225f5802660fe335e76bc31a955662a76f8af4b4073e5c91b396e2d88d64736f6c63430008160033a2646970667358221220ab338c982f6027956dd87aae00cdbc9e95b1ab6c4023e14e2365f947221811e064736f6c63430008160033",
  "devdoc": {
    "details": "ERC721 NFT contract for staking governance tokens with dynamic yield based on total staked tokens. Rewards decrease as more users stake, with a fixed reward distribution rate (tokens per second).",
    "errors": {
      "ERC721EnumerableForbiddenBatchMint()": [
        {
          "details": "Batch mint is not allowed."
        }
      ],
      "ERC721IncorrectOwner(address,uint256,address)": [
        {
          "details": "Indicates an error related to the ownership over a particular token. Used in transfers.",
          "params": {
            "owner": "Address of the current owner of a token.",
            "sender": "Address whose tokens are being transferred.",
            "tokenId": "Identifier number of a token."
          }
        }
      ],
      "ERC721InsufficientApproval(address,uint256)": [
        {
          "details": "Indicates a failure with the `operator`s approval. Used in transfers.",
          "params": {
            "operator": "Address that may be allowed to operate on tokens without being their owner.",
            "tokenId": "Identifier number of a token."
          }
        }
      ],
      "ERC721InvalidApprover(address)": [
        {
          "details": "Indicates a failure with the `approver` of a token to be approved. Used in approvals.",
          "params": {
            "approver": "Address initiating an approval operation."
          }
        }
      ],
      "ERC721InvalidOperator(address)": [
        {
          "details": "Indicates a failure with the `operator` to be approved. Used in approvals.",
          "params": {
            "operator": "Address that may be allowed to operate on tokens without being their owner."
          }
        }
      ],
      "ERC721InvalidOwner(address)": [
        {
          "details": "Indicates that an address can't be an owner. For example, `address(0)` is a forbidden owner in ERC-20. Used in balance queries.",
          "params": {
            "owner": "Address of the current owner of a token."
          }
        }
      ],
      "ERC721InvalidReceiver(address)": [
        {
          "details": "Indicates a failure with the token `receiver`. Used in transfers.",
          "params": {
            "receiver": "Address to which tokens are being transferred."
          }
        }
      ],
      "ERC721InvalidSender(address)": [
        {
          "details": "Indicates a failure with the token `sender`. Used in transfers.",
          "params": {
            "sender": "Address whose tokens are being transferred."
          }
        }
      ],
      "ERC721NonexistentToken(uint256)": [
        {
          "details": "Indicates a `tokenId` whose `owner` is the zero address.",
          "params": {
            "tokenId": "Identifier number of a token."
          }
        }
      ],
      "ERC721OutOfBoundsIndex(address,uint256)": [
        {
          "details": "An `owner`'s token query was out of bounds for `index`. NOTE: The owner being `address(0)` indicates a global out of bounds index."
        }
      ],
      "OwnableInvalidOwner(address)": [
        {
          "details": "The owner is not a valid owner account. (eg. `address(0)`)"
        }
      ],
      "OwnableUnauthorizedAccount(address)": [
        {
          "details": "The caller account is not authorized to perform an operation."
        }
      ],
      "ReentrancyGuardReentrantCall()": [
        {
          "details": "Unauthorized reentrant call."
        }
      ]
    },
    "events": {
      "Approval(address,address,uint256)": {
        "details": "Emitted when `owner` enables `approved` to manage the `tokenId` token."
      },
      "ApprovalForAll(address,address,bool)": {
        "details": "Emitted when `owner` enables or disables (`approved`) `operator` to manage all of its assets."
      },
      "BatchMetadataUpdate(uint256,uint256)": {
        "details": "This event emits when the metadata of a range of tokens is changed. So that the third-party platforms such as NFT market could timely update the images and related attributes of the NFTs."
      },
      "MetadataUpdate(uint256)": {
        "details": "This event emits when the metadata of a token is changed. So that the third-party platforms such as NFT market could timely update the images and related attributes of the NFT."
      },
      "Transfer(address,address,uint256)": {
        "details": "Emitted when `tokenId` token is transferred from `from` to `to`."
      }
    },
    "kind": "dev",
    "methods": {
      "addStake(uint256,uint256)": {
        "params": {
          "amount": "The amount of tokens to add to the existing stake.",
          "tokenId": "The ID of the NFT for which additional tokens are being staked."
        }
      },
      "approve(address,uint256)": {
        "details": "See {IERC721-approve}."
      },
      "balanceOf(address)": {
        "details": "See {IERC721-balanceOf}."
      },
      "constructor": {
        "details": "Initializes the contract by setting the governance token address and initial distribution rate.",
        "params": {
          "_governanceToken": "Address of the ERC20 governance token used for staking.",
          "_initialDistributionRate": "Initial tokens per second for reward distribution.",
          "_initialOwner": "Address of the initial contract owner."
        }
      },
      "delegateStakedTokens(uint256,address)": {
        "params": {
          "delegatee": "Address to delegate voting power to.",
          "tokenId": "The NFT's token ID."
        }
      },
      "depositRewards(uint256)": {
        "params": {
          "amount": "The amount of tokens to deposit."
        }
      },
      "escapeHatch(address)": {
        "params": {
          "to": "Address to receive the withdrawn tokens."
        }
      },
      "getAccruedRewards(uint256)": {
        "params": {
          "tokenId": "The NFT's ID."
        }
      },
      "getApproved(uint256)": {
        "details": "See {IERC721-getApproved}."
      },
      "getCurrentYieldPerToken()": {
        "returns": {
          "_0": "The current reward yield per staked token per second."
        }
      },
      "getStakeInfo(uint256)": {
        "params": {
          "tokenId": "The ID of the NFT."
        }
      },
      "isApprovedForAll(address,address)": {
        "details": "See {IERC721-isApprovedForAll}."
      },
      "mint(address,uint256,string)": {
        "params": {
          "amount": "The initial amount of tokens to stake.",
          "to": "The address to receive the minted NFT.",
          "uri": "The URI for the NFT metadata."
        }
      },
      "name()": {
        "details": "See {IERC721Metadata-name}."
      },
      "owner()": {
        "details": "Returns the address of the current owner."
      },
      "ownerOf(uint256)": {
        "details": "See {IERC721-ownerOf}."
      },
      "renounceOwnership()": {
        "details": "Leaves the contract without owner. It will not be possible to call `onlyOwner` functions. Can only be called by the current owner. NOTE: Renouncing ownership will leave the contract without an owner, thereby disabling any functionality that is only available to the owner."
      },
      "safeTransferFrom(address,address,uint256)": {
        "details": "See {IERC721-safeTransferFrom}."
      },
      "safeTransferFrom(address,address,uint256,bytes)": {
        "details": "See {IERC721-safeTransferFrom}."
      },
      "setApprovalForAll(address,bool)": {
        "details": "See {IERC721-setApprovalForAll}."
      },
      "setDistributionRate(uint256)": {
        "params": {
          "rate": "The new tokens per second rate for reward distribution."
        }
      },
      "supportsInterface(bytes4)": {
        "details": "ERC165 interface support."
      },
      "symbol()": {
        "details": "See {IERC721Metadata-symbol}."
      },
      "tokenByIndex(uint256)": {
        "details": "See {IERC721Enumerable-tokenByIndex}."
      },
      "tokenOfOwnerByIndex(address,uint256)": {
        "details": "See {IERC721Enumerable-tokenOfOwnerByIndex}."
      },
      "tokenURI(uint256)": {
        "details": "Returns the token URI."
      },
      "totalSupply()": {
        "details": "See {IERC721Enumerable-totalSupply}."
      },
      "transferFrom(address,address,uint256)": {
        "details": "See {IERC721-transferFrom}."
      },
      "transferOwnership(address)": {
        "details": "Transfers ownership of the contract to a new account (`newOwner`). Can only be called by the current owner."
      },
      "withdrawRewards(uint256)": {
        "params": {
          "tokenId": "The ID of the NFT for which rewards are being withdrawn."
        }
      }
    },
    "title": "HamsterverseStakingNFT",
    "version": 1
  },
  "userdoc": {
    "errors": {
      "NotTokenOwner(uint256,address)": [
        {
          "notice": "Custom Errors "
        }
      ]
    },
    "kind": "user",
    "methods": {
      "addStake(uint256,uint256)": {
        "notice": "Allows NFT owners to add more tokens to their stake."
      },
      "delegateStakedTokens(uint256,address)": {
        "notice": "Allows delegation of staked tokens."
      },
      "depositRewards(uint256)": {
        "notice": "Allows users to deposit tokens into the reward pool."
      },
      "escapeHatch(address)": {
        "notice": "Emergency function to withdraw remaining reward pool tokens."
      },
      "getAccruedRewards(uint256)": {
        "notice": "Returns accrued rewards for a specific NFT."
      },
      "getCurrentYieldPerToken()": {
        "notice": "Calculates current reward yield per staked token."
      },
      "getRewardPoolBalance()": {
        "notice": "Returns the current reward pool balance."
      },
      "getStakeInfo(uint256)": {
        "notice": "Provides staking information for a given NFT."
      },
      "getStakingStats()": {
        "notice": "Returns global staking statistics."
      },
      "getTotalStakedTokens()": {
        "notice": "Returns total tokens staked across all NFTs."
      },
      "mint(address,uint256,string)": {
        "notice": "Allows users to mint an NFT and initiate their stake."
      },
      "setDistributionRate(uint256)": {
        "notice": "Allows contract owner to set the reward distribution rate."
      },
      "withdrawRewards(uint256)": {
        "notice": "Allows NFT owners to withdraw only accrued rewards."
      }
    },
    "version": 1
  },
  "storageLayout": {
    "storage": [
      {
        "astId": 938,
        "contract": "contracts/HamsterverseStakingNFT.sol:HamsterverseStakingNFT",
        "label": "_name",
        "offset": 0,
        "slot": "0",
        "type": "t_string_storage"
      },
      {
        "astId": 940,
        "contract": "contracts/HamsterverseStakingNFT.sol:HamsterverseStakingNFT",
        "label": "_symbol",
        "offset": 0,
        "slot": "1",
        "type": "t_string_storage"
      },
      {
        "astId": 944,
        "contract": "contracts/HamsterverseStakingNFT.sol:HamsterverseStakingNFT",
        "label": "_owners",
        "offset": 0,
        "slot": "2",
        "type": "t_mapping(t_uint256,t_address)"
      },
      {
        "astId": 948,
        "contract": "contracts/HamsterverseStakingNFT.sol:HamsterverseStakingNFT",
        "label": "_balances",
        "offset": 0,
        "slot": "3",
        "type": "t_mapping(t_address,t_uint256)"
      },
      {
        "astId": 952,
        "contract": "contracts/HamsterverseStakingNFT.sol:HamsterverseStakingNFT",
        "label": "_tokenApprovals",
        "offset": 0,
        "slot": "4",
        "type": "t_mapping(t_uint256,t_address)"
      },
      {
        "astId": 958,
        "contract": "contracts/HamsterverseStakingNFT.sol:HamsterverseStakingNFT",
        "label": "_operatorApprovals",
        "offset": 0,
        "slot": "5",
        "type": "t_mapping(t_address,t_mapping(t_address,t_bool))"
      },
      {
        "astId": 2016,
        "contract": "contracts/HamsterverseStakingNFT.sol:HamsterverseStakingNFT",
        "label": "_ownedTokens",
        "offset": 0,
        "slot": "6",
        "type": "t_mapping(t_address,t_mapping(t_uint256,t_uint256))"
      },
      {
        "astId": 2020,
        "contract": "contracts/HamsterverseStakingNFT.sol:HamsterverseStakingNFT",
        "label": "_ownedTokensIndex",
        "offset": 0,
        "slot": "7",
        "type": "t_mapping(t_uint256,t_uint256)"
      },
      {
        "astId": 2023,
        "contract": "contracts/HamsterverseStakingNFT.sol:HamsterverseStakingNFT",
        "label": "_allTokens",
        "offset": 0,
        "slot": "8",
        "type": "t_array(t_uint256)dyn_storage"
      },
      {
        "astId": 2027,
        "contract": "contracts/HamsterverseStakingNFT.sol:HamsterverseStakingNFT",
        "label": "_allTokensIndex",
        "offset": 0,
        "slot": "9",
        "type": "t_mapping(t_uint256,t_uint256)"
      },
      {
        "astId": 2411,
        "contract": "contracts/HamsterverseStakingNFT.sol:HamsterverseStakingNFT",
        "label": "_tokenURIs",
        "offset": 0,
        "slot": "10",
        "type": "t_mapping(t_uint256,t_string_storage)"
      },
      {
        "astId": 3020,
        "contract": "contracts/HamsterverseStakingNFT.sol:HamsterverseStakingNFT",
        "label": "_status",
        "offset": 0,
        "slot": "11",
        "type": "t_uint256"
      },
      {
        "astId": 8,
        "contract": "contracts/HamsterverseStakingNFT.sol:HamsterverseStakingNFT",
        "label": "_owner",
        "offset": 0,
        "slot": "12",
        "type": "t_address"
      },
      {
        "astId": 6982,
        "contract": "contracts/HamsterverseStakingNFT.sol:HamsterverseStakingNFT",
        "label": "_nextTokenId",
        "offset": 0,
        "slot": "13",
        "type": "t_uint256"
      },
      {
        "astId": 6984,
        "contract": "contracts/HamsterverseStakingNFT.sol:HamsterverseStakingNFT",
        "label": "governanceToken",
        "offset": 0,
        "slot": "14",
        "type": "t_address"
      },
      {
        "astId": 6986,
        "contract": "contracts/HamsterverseStakingNFT.sol:HamsterverseStakingNFT",
        "label": "distributionRate",
        "offset": 0,
        "slot": "15",
        "type": "t_uint256"
      },
      {
        "astId": 6990,
        "contract": "contracts/HamsterverseStakingNFT.sol:HamsterverseStakingNFT",
        "label": "stakeProxies",
        "offset": 0,
        "slot": "16",
        "type": "t_mapping(t_uint256,t_address)"
      },
      {
        "astId": 6995,
        "contract": "contracts/HamsterverseStakingNFT.sol:HamsterverseStakingNFT",
        "label": "_stakeData",
        "offset": 0,
        "slot": "17",
        "type": "t_mapping(t_uint256,t_struct(StakeData)6980_storage)"
      },
      {
        "astId": 6997,
        "contract": "contracts/HamsterverseStakingNFT.sol:HamsterverseStakingNFT",
        "label": "totalStakeSeconds",
        "offset": 0,
        "slot": "18",
        "type": "t_uint256"
      }
    ],
    "types": {
      "t_address": {
        "encoding": "inplace",
        "label": "address",
        "numberOfBytes": "20"
      },
      "t_array(t_uint256)dyn_storage": {
        "base": "t_uint256",
        "encoding": "dynamic_array",
        "label": "uint256[]",
        "numberOfBytes": "32"
      },
      "t_bool": {
        "encoding": "inplace",
        "label": "bool",
        "numberOfBytes": "1"
      },
      "t_mapping(t_address,t_bool)": {
        "encoding": "mapping",
        "key": "t_address",
        "label": "mapping(address => bool)",
        "numberOfBytes": "32",
        "value": "t_bool"
      },
      "t_mapping(t_address,t_mapping(t_address,t_bool))": {
        "encoding": "mapping",
        "key": "t_address",
        "label": "mapping(address => mapping(address => bool))",
        "numberOfBytes": "32",
        "value": "t_mapping(t_address,t_bool)"
      },
      "t_mapping(t_address,t_mapping(t_uint256,t_uint256))": {
        "encoding": "mapping",
        "key": "t_address",
        "label": "mapping(address => mapping(uint256 => uint256))",
        "numberOfBytes": "32",
        "value": "t_mapping(t_uint256,t_uint256)"
      },
      "t_mapping(t_address,t_uint256)": {
        "encoding": "mapping",
        "key": "t_address",
        "label": "mapping(address => uint256)",
        "numberOfBytes": "32",
        "value": "t_uint256"
      },
      "t_mapping(t_uint256,t_address)": {
        "encoding": "mapping",
        "key": "t_uint256",
        "label": "mapping(uint256 => address)",
        "numberOfBytes": "32",
        "value": "t_address"
      },
      "t_mapping(t_uint256,t_string_storage)": {
        "encoding": "mapping",
        "key": "t_uint256",
        "label": "mapping(uint256 => string)",
        "numberOfBytes": "32",
        "value": "t_string_storage"
      },
      "t_mapping(t_uint256,t_struct(StakeData)6980_storage)": {
        "encoding": "mapping",
        "key": "t_uint256",
        "label": "mapping(uint256 => struct HamsterverseStakingNFT.StakeData)",
        "numberOfBytes": "32",
        "value": "t_struct(StakeData)6980_storage"
      },
      "t_mapping(t_uint256,t_uint256)": {
        "encoding": "mapping",
        "key": "t_uint256",
        "label": "mapping(uint256 => uint256)",
        "numberOfBytes": "32",
        "value": "t_uint256"
      },
      "t_string_storage": {
        "encoding": "bytes",
        "label": "string",
        "numberOfBytes": "32"
      },
      "t_struct(StakeData)6980_storage": {
        "encoding": "inplace",
        "label": "struct HamsterverseStakingNFT.StakeData",
        "members": [
          {
            "astId": 6975,
            "contract": "contracts/HamsterverseStakingNFT.sol:HamsterverseStakingNFT",
            "label": "stakeTimestamp",
            "offset": 0,
            "slot": "0",
            "type": "t_uint256"
          },
          {
            "astId": 6977,
            "contract": "contracts/HamsterverseStakingNFT.sol:HamsterverseStakingNFT",
            "label": "lastRewardTimestamp",
            "offset": 0,
            "slot": "1",
            "type": "t_uint256"
          },
          {
            "astId": 6979,
            "contract": "contracts/HamsterverseStakingNFT.sol:HamsterverseStakingNFT",
            "label": "accumulatedStakeSeconds",
            "offset": 0,
            "slot": "2",
            "type": "t_uint256"
          }
        ],
        "numberOfBytes": "96"
      },
      "t_uint256": {
        "encoding": "inplace",
        "label": "uint256",
        "numberOfBytes": "32"
      }
    }
  }
}